:030000000206599C
:0C065900787FE4F6D8FD7581200206A031
:1008BF0002110010021500000217000001080001CC
:0808CF000900011300011400EF
:10076000E4FFFEC287000000000000000000D28706
:100770000000000000000000000000000000000079
:10078000000FBF00010EBE01DABF5AD7D287E4FEC8
:10079000FF0000000000000000000000000000005A
:1007A00000000000000000000000000FBF00010E6C
:0607B000EF64AD4E70DBAA
:0107B6002220
:1007B700E4FFC287000000000000000000D28700AD
:1007C7000000000000000000000000000000000022
:1007D7000FBF15DED287E4FF000000000000000015
:1007E7000000000000000000000000000000000002
:0607F70000000FBF41E20B
:0107FD0022D9
:1007FE00E4FFC287000000000000000000D2870066
:10080E0000000000000000000000000000000000DA
:10081E000FBF15DED287E4FF0000000000000000CD
:10082E0000000000000000000000000000000000BA
:06083E0000000FBF15E2EF
:010844002291
:02000600AB0746
:10000800EBF4F9EDF4FA120760EB139200300005F7
:100018001207B780031207FEEBA2E1920030000539
:100028001207B780031207FEEBA2E2920030000528
:100038001207B780031207FEEBA2E3920030000517
:100048001207B780031207FEEBA2E4920030000506
:100058001207B780031207FEEBA2E59200300005F5
:100068001207B780031207FEEBA2E69200300005E4
:100078001207B780031207FEEB3392003000051217
:1000880007B780031207FEE9139200300005120734
:10009800B780031207FEE9A2E192003000051207BB
:1000A800B780031207FEE9A2E292003000051207AA
:1000B800B780031207FEE9A2E39200300005120799
:1000C800B780031207FEE9A2E49200300005120788
:1000D800B780031207FEE9A2E59200300005120777
:1000E800B780031207FEE9A2E69200300005120766
:1000F800B780031207FEE93392003000051207B7F4
:1001080080031207FEED1392003000051207B78036
:10011800031207FEEDA2E192003000051207B78036
:10012800031207FEEDA2E292003000051207B78025
:10013800031207FEEDA2E392003000051207B78014
:10014800031207FEEDA2E492003000051207B78003
:10015800031207FEEDA2E592003000051207B780F2
:10016800031207FEEDA2E692003000051207B780E1
:10017800031207FEED3392003000051207B7800323
:100188001207FEEA1392003000051207B780031227
:1001980007FEEAA2E192003000051207B7800312B9
:1001A80007FEEAA2E292003000051207B7800312A8
:1001B80007FEEAA2E392003000051207B780031297
:1001C80007FEEAA2E492003000051207B780031286
:1001D80007FEEAA2E592003000051207B780031275
:1001E80007FEEAA2E692003000051207B780031264
:1001F80007FEEA3392003000051207B780031207A2
:04020800FE0207FEED
:0408A5007F647E00EE
:1008A900EF1FAA0670011E4A600BE4FDEDC3940D0B
:0508B90050EE0D80F778
:0108BE002217
:10020C007590FEAF907519008F1A531AF07519007E
:10021C00E51A64F04519605C1208A5E51A64F0450E
:10022C00196051AF907519008F1AE519702FE51AE6
:10023C002482602324C0601724E0600B24F0701D1E
:10024C00E4F511F5128016751100751201800E750A
:10025C0011007512028006751100751203E51A64FF
:10026C00F04519600FAF907519008F1A531AF0757D
:10027C00190080E97590FDAF907519008F1A531A0B
:10028C00F0751900E51A64F04519605D1208A5E5D2
:10029C001A64F045196052AF907519008F1AE51960
:1002AC007030E51A2483602424C0601824E0600CAC
:1002BC0024F0701E751100751204801675110075EE
:1002CC001205800E751100751206800675110075E9
:1002DC001207E51A64FD4519600FAF907519008F70
:1002EC001A531AFD75190080E97590FBAF907519BA
:1002FC00008F1A531AF0751900E51A64F04519604D
:10030C005D1208A5E51A64F045196052AF90751995
:10031C00008F1AE5197030E51A2485602424C0601A
:10032C001824E0600C24F0701E7511007512088002
:10033C0016751100751209800E75110075120A8060
:10034C000675110075120BE51A64FB4519600FAFA9
:10035C00907519008F1A531AFB75190080E9759066
:10036C00F7AF907519008F1A531AF0751900E51A2A
:10037C0064F04519605D1208A5E51A64F045196032
:10038C0052AF907519008F1AE5197030E51A24894F
:10039C00602424C0601824E0600C24F0701E7511D9
:1003AC000075120C801675110075120D800E7511EA
:1003BC000075120E800675110075120FE51A64F7A0
:1003CC004519600FAF907519008F1A531AF77519EC
:0303DC000080E9B5
:0103DF0022FB
:0908F000D288D2A8D2AFD2B22204
:1003E0001208F0120887C2AF12020CE51160030276
:1003F0000473E512B41000507A900400F8282873B2
:1004000002043002043402043802043C02044002B4
:10041000044402044802044C02045002045402043E
:100420005802045C02046002046402046802046C62
:10043000E4FD803A7D0180367D0280327D03802E8E
:100440007D04802A7D0580267D0680227D07801E12
:100450007D08801A7D0980167D0A80127D0B800E32
:100460007D0C800A7D0D80067D0E80027D0F7F222F
:10047000120006D2AFE50D54F012073A04A40F049F
:10048000B11F04B82F04C53F04CB4F04D25F04D87A
:100490006F04DF7F04E58F04EE9F04F6AF04FFBF17
:1004A00000000507E50D75F010A4AEF04216EE420F
:1004B00015E50D540F4216E4E50D75F010A4AEF0ED
:1004C0004218EE4217E50D540F4218E50DC454F0E2
:1004D0004213E50D540F4213E50DC454F04214E5E8
:1004E0000D540F4214E50DC454F04513F508E50D05
:1004F000540F4513F508E50DC454F04514F509E50E
:100500000D540F4514F5097F801208D8AE15AF16AB
:100510007C007D641206E5EF2430FF1208E4AE157E
:10052000AF167C007D641206E57E007F0ACFCDCF3A
:10053000CECCCE1206E5EF2430FF1208E4AE15AFA4
:10054000167C007D0A1206E5ED2430FF1208E40255
:0205500003E6C0
:03000300020552A1
:10055200C0E0C083C082C0D075D000C000C002C05D
:0705620004C005C006C0073C
:10056900750A007F467E001208A930B203020644CC
:100579009003E820B21CD3E5829400E583940040FF
:10058900117F017E001208A9E582158270E51583A5
:1005990080E120B2030206449001F430B21CD3E595
:1005A900829400E583940040117F017E001208A91E
:1005B900E582158270E5158380E1E4FC751B0090E6
:1005C900003C20B21CD3E5829400E58394004011DD
:1005D9007F017E001208A9E582158270E5158380E6
:1005E900E19001F430B227D3E5829400E5839400C9
:1005F900401C7F017E001208A9050AE58215827058
:10060900021583E50AD3941E40DAD2A8802D740B13
:100619002CF8C000E6C313D000F6E50AC3940A40DB
:1006290008740B2CF8E64480F6750A00051BE51BD7
:0B063900C39408408A0CEC640470813C
:10064400D007D006D005D004D002D000D0D0D082BC
:05065400D083D0E0326C
:10084500C2A58B807F017E0012086ED2A77F057E30
:100855000012086EC2A7EBC454F0F5807F017E003C
:0908650012086ED2A77F057E0087
:10086E00D3EF9400EE9400400F7DC77C01DCFEDDDB
:08087E00FAEF1F70EB1E80E889
:01088600224F
:0C08D800AB07C2A7C2A6120845C2A722A7
:0C08E400AB07C2A7D2A6120845C2A7228B
:100887007F321208D87F281208D87F0C1208D87F29
:0E089700061208D87F011208D87F800208D808
:100665000203E0E493A3F8E493A34003F68001F2C8
:1006750008DFF48029E493A3F85407240CC8C33396
:10068500C4540F4420C8834004F456800146F6DF65
:10069500E4800B01020408102040809008BFE47E2E
:1006A500019360BCA3FF543F30E509541FFEE4935A
:1006B500A360010ECF54C025E060A840B8E493A321
:1006C500FAE493A3F8E493A3C8C582C8CAC583CA4C
:1006D500F0A3C8C582C8CAC583CADFE9DEE780BE04
:0108D7000020
:1006E500BC000BBE0029EF8DF084FFADF022E4CCF9
:1006F500F875F008EF2FFFEE33FEEC33FCEE9DECC2
:10070500984005FCEE9DFE0FD5F0E9E4CEFD22ED07
:10071500F8F5F0EE8420D21CFEADF075F008EF2F51
:10072500FFED33FD4007985006D5F0F222C398FD42
:050735000FD5F0EA22DF
:10073A00D083D082F8E4937012740193700DA3A34E
:10074A0093F8740193F5828883E473740293686062
:06075A00EFA3A3A380DF62
:00000001FF
