:03000000020744B0
:0C074400787FE4F6D8FD75812002078B59
:1009C300466F723A4261636B3A543A52483A533A29
:1009AD0002130010021600000218000001080001D9
:0509BD001500010A0015
:1007D000E4FFFEC2A0000000000000000000D2A064
:1007E0000000000000000000000000000000000009
:1007F000000FBF00010EBE01DABF5AD7D2A0E4FE3F
:10080000FF000000000000000000000000000000E9
:1008100000000000000000000000000FBF00010EFB
:06082000EF64AD4E70DB39
:0108260022AF
:10087C00E4FFC2A0000000000000000000D2A000B5
:10088C00000000000000000000000000000000005C
:10089C000FBF15DED2A0E4FF000000000000000036
:1008AC00000000000000000000000000000000003C
:0608BC0000000FBF41E245
:0108C2002213
:1008C300E4FFC2A0000000000000000000D2A0006E
:1008D3000000000000000000000000000000000015
:1008E3000FBF15DED2A0E4FF0000000000000000EF
:1008F30000000000000000000000000000000000F5
:0609030000000FBF15E229
:0109090022CB
:02026300AB07E7
:10026500EBF4F9EDF4FA1207D0EB13920030000528
:1002750012087C80031208C3EBA2E192003000054E
:1002850012087C80031208C3EBA2E292003000053D
:1002950012087C80031208C3EBA2E392003000052C
:1002A50012087C80031208C3EBA2E492003000051B
:1002B50012087C80031208C3EBA2E592003000050A
:1002C50012087C80031208C3EBA2E69200300005F9
:1002D50012087C80031208C3EB339200300005122C
:1002E500087C80031208C3E9139200300005120848
:1002F5007C80031208C3E9A2E192003000051208D0
:100305007C80031208C3E9A2E292003000051208BE
:100315007C80031208C3E9A2E392003000051208AD
:100325007C80031208C3E9A2E4920030000512089C
:100335007C80031208C3E9A2E5920030000512088B
:100345007C80031208C3E9A2E6920030000512087A
:100355007C80031208C3E933920030000512087C43
:1003650080031208C3ED13920030000512087C804B
:10037500031208C3EDA2E1920030000512087C804B
:10038500031208C3EDA2E2920030000512087C803A
:10039500031208C3EDA2E3920030000512087C8029
:1003A500031208C3EDA2E4920030000512087C8018
:1003B500031208C3EDA2E5920030000512087C8007
:1003C500031208C3EDA2E6920030000512087C80F6
:1003D500031208C3ED33920030000512087C800338
:1003E5001208C3EA13920030000512087C8003123C
:1003F50008C3EAA2E1920030000512087C800312CE
:1004050008C3EAA2E2920030000512087C800312BC
:1004150008C3EAA2E3920030000512087C800312AB
:1004250008C3EAA2E4920030000512087C8003129A
:1004350008C3EAA2E5920030000512087C80031289
:1004450008C3EAA2E6920030000512087C80031278
:1004550008C3EA33920030000512087C80031208B5
:04046500C30208C303
:0B094C007F22120263D2A87FC87E0049
:10095700D3EF9400EE940040147D6E7C00ED1D7083
:0D096700011CED4C70F7EF1F70E61E80E3E1
:010974002260
:100469007590FEAF90750B008F0C530CF0750B0057
:10047900E50C64F0450B60607F0A7E00120957E5C0
:100489000C64F0450B6051AF90750B008F0CE50BB8
:10049900702FE50C2482602324C0601724E0600BD0
:1004A90024F0701DE4F513F5148016751300751406
:1004B90001800E75130075140280067513007514FA
:1004C90003E50C64F0450B600FAF90750B008F0CC2
:1004D900530CF0750B0080E97590FDAF90750B001A
:1004E9008F0C530CF0750B00E50C64F0450B606143
:1004F9007F0A7E00120957E50C64F0450B6052AF84
:1005090090750B008F0CE50B7030E50C248360248B
:1005190024C0601824E0600C24F0701E7513007567
:1005290014048016751300751405800E7513007573
:1005390014068006751300751407E50C64FD450B58
:10054900600FAF90750B008F0C530CFD750B00807D
:10055900E97590FBAF90750B008F0C530CF0750B80
:1005690000E50C64F0450B60617F0A7E00120957B3
:10057900E50C64F0450B6052AF90750B008F0CE5EC
:100589000B7030E50C2485602424C0601824E060D9
:100599000C24F0701E75130075140880167513006D
:1005A900751409800E75130075140A8006751300F9
:1005B90075140BE50C64FB450B600FAF90750B00D0
:1005C9008F0C530CFB750B0080E97590F7AF907594
:1005D9000B008F0C530CF0750B00E50C64F0450B08
:1005E90060617F0A7E00120957E50C64F0450B60D3
:1005F90052AF90750B008F0CE50B7030E50C248918
:10060900602424C0601824E0600C24F0701E751367
:100619000075140C801675130075140D800E751372
:100629000075140E800675130075140FE50C64F738
:10063900450B600FAF90750B008F0C530CF7750BC2
:040649000080E92222
:0909EB00D288C2A8D2AFD2B22218
:100006001209751209EB7F801209D3E4F51AE51A75
:100016009009C393FF1209DF051AE51AC394044039
:10002600ED7F881209D3E4F51AE51A9009C793FF04
:100036001209DF051AE51AC3940540ED7FC01209BF
:10004600D3E4F51AE51A9009CC93FF1209DF051AD5
:10005600E51AC3940240ED7FC51209D3E4F51AE50B
:100066001A9009CE93FF1209DF051AE51AC3940305
:1000760040ED7FCB1209D3E4F51AE51A9009D19326
:10008600FF1209DF051AE51AC3940240ED1204694E
:10009600E5136003020173E514B410004003020186
:1000A600739000AEF82828730200DE0200E3020017
:1000B600E70200EB0200EF0200F30201060201185C
:1000C60002017302017302012702013602013F0297
:1000D600014B020157020163E4FD0201387D0180F4
:1000E600517D02804D7D0380497D0480457D05124A
:1000F600094CC2A8751600850F17750F0F02016D02
:100106007D0612094CC2A8751800850F19750F19BE
:1001160080557D0712094CC2A8850F08750F1280FD
:10012600467D0812094CC2A8850F15750F21803728
:100136007D0A7F22120263802E7D0B7F22120263CC
:10014600750A1480227D0C7F22120263750A2880AC
:10015600167D0D7F22120263750A3C800A7D0E7F92
:1001660022120263750A507513007514107F8412EB
:1001760009D3AE18AF197C007D64120827EF24302E
:10018600FF1209DFAE18AF197C007D641208277EC6
:10019600007F0ACFCDCFCECCCE120827EF2430FF7A
:1001A6001209DFAE18AF197C007D0A120827ED246C
:1001B60030FF1209DF7F8D1209D3AE16AF177C0010
:1001C6007D64120827EF2430FF1209DFAE16AF1741
:1001D6007C007D641208277E007F0ACFCDCFCECC6F
:1001E600CE120827EF2430FF1209DFAE16AF177CB8
:1001F600007D0A120827ED2430FF1209DF7FC212A4
:1002060009D3E50875F00A842430FF1209DFE508F2
:1002160075F00A84E5F02430FF1209DF7FC8120961
:10022600D3E51575F00A842430FF1209DFE515754C
:10023600F00A84E5F02430FF1209DF7FCD1209D3DE
:10024600E50A75F00A842430FF1209DFE50A75F025
:0D0256000A84E5F02430FF1209DF02009356
:040993007F017E0062
:10099700EF1FAA0670011E4A600BE4FDEDC3940D1C
:0509A70050EE0D80F789
:0109AC002228
:0300030002064DA5
:10064D00C0E0C083C082C0D075D000C000C002C061
:07065D0004C005C006C00740
:100664007509007F467E0012099730B20302072FF6
:100674009003E820B218D3E5829400E58394004007
:100684000D120993E582158270E9158380E520B285
:100694000302072F9001F430B218D3E5829400E5E9
:1006A400839400400D120993E582158270E9158345
:1006B40080E5E4FC751B0090003C20B218D3E58271
:1006C4009400E5839400400D120993E5821582702D
:1006D400E9158380E59001F430B223D3E5829400D8
:1006E400E583940040181209930509E58215827088
:1006F400021583E509D3941E40DED2A8802D740D23
:100704002CF8C000E6C313D000F6E509C3940A40F0
:1007140008740D2CF8E64480F6750900051BE51BEA
:0B072400C3940840920CEC6404708940
:10072F00D007D006D005D004D002D000D0D0D082D0
:05073F00D083D0E03280
:10090A00C2A58B807F017E00120933D2A77F057EA4
:10091A0000120933C2A7EBC454F0F5807F017E00B0
:09092A00120933D2A77F057E00FB
:10093300D3EF9400EE9400400F7DC77C01DCFEDD15
:08094300FAEF1F70EB1E80E8C3
:01094B002289
:0C09D300AB07C2A7C2A612090AC2A722E5
:0C09DF00AB07C2A7D2A612090AC2A722C9
:100975007F321209D37F281209D37F0C1209D37F46
:0E098500061209D37F011209D37F800209D325
:10075000020006E493A3F8E493A34003F68001F2B9
:1007600008DFF48029E493A3F85407240CC8C333AA
:10077000C4540F4420C8834004F456800146F6DF79
:10078000E4800B01020408102040809009ADE47E53
:10079000019360BCA3FF543F30E509541FFEE4936E
:1007A000A360010ECF54C025E060A840B8E493A335
:1007B000FAE493A3F8E493A3C8C582C8CAC583CA60
:1007C000F0A3C8C582C8CAC583CADFE9DEE780BE18
:0109C2000034
:10082700BC000BBE0029EF8DF084FFADF022E4CCB5
:10083700F875F008EF2FFFEE33FEEC33FCEE9DEC7E
:10084700984005FCEE9DFE0FD5F0E9E4CEFD22EDC4
:10085700F8F5F0EE8420D21CFEADF075F008EF2F0E
:10086700FFED33FD4007985006D5F0F222C398FDFF
:050877000FD5F0EA229C
:00000001FF
