:03000000020D4DA1
:0C0D4D00787FE4F6D8FD75813D020D941E
:100EE900C2A58B807F017E00120F12D2A77F057EDB
:100EF90000120F12C2A7EBC454F0F5807F017E00E7
:090F0900120F12D2A77F057E0031
:100F1200D3EF9400EE9400400F7DC77C01DCFEDD30
:080F2200FAEF1F70EB1E80E8DE
:010F2A0022A4
:0C0FB200AB07C2A7C2A6120EE9C2A7221C
:0C0FBE00AB07C2A7D2A6120EE9C2A72200
:100F4C007F32120FB27F28120FB27F0C120FB27FBA
:0E0F5C0006120FB27F01120FB27F80020FB299
:100F8300042800000000042E00000000022C0000D2
:080F9300023A0000023C0000DC
:100F9C00EF1FAA0670011E4A600BE4FDEDC3947DA1
:050FAC0050EE0D80F77E
:010FB100221D
:070FCA00EFC313FFDFFE225D
:100DD900D200C28CE4F58CF58AD2A2F52C752D14BB
:100DE900E52D152D7002152CE52D452C70F2C2A2AA
:100DF90030A3FDD28C20A3FDAF8CE48F35F534F5FB
:100E090033F532AF8A8F39F538F537F5363000FDCD
:100E1900E4FF7E01FDFCAB35AA34A933A832120ADE
:100E2900ACEF2539FFEE3538FEED3537FDEC3536BB
:100E39008F2B8E2A8D29F528E47F11FEFDFCAB2B23
:100E4900AA2AA929A828120AACE47B4C7A04F9F841
:080E5900120B378E3A8F3B2289
:100E6100D200C28CE4F58CF58AD294F52C752D1440
:100E7100E52D152D7002152CE52D452C70F2C2942F
:100E81003095FDD28C2095FDAF8CE48F35F534F58E
:100E910033F532AF8A8F39F538F537F5363000FD45
:100EA100E4FF7E01FDFCAB35AA34A933A832120A56
:100EB100ACEF2539FFEE3538FEED3537FDEC353633
:100EC1008F318E308D2FF52EE47F11FEFDFCAB317D
:100ED100AA30A92FA82E120AACE47B4C7A04F9F8A7
:080EE100120B378E3C8F3D22FD
:100F2B00E4FC30A0FD7F23120FCAE4FD30A0010DBD
:100F3B0020A0FDEE25E0FEED42060CBC08E4AF065A
:010F4B002283
:100C9C00C2A07F147E00120F9CD2A07F3C120FCA00
:100CAC0020A04130A0FD20A0FD120F2B8F26120F8B
:100CBC002B8F27120F2B8F22120F2B8F23120F2B00
:100CCC008F24D2A0E5222523FFE433FE7C00EF2500
:100CDC0026FFEC3EFEEF2527FFEC3EFEEFB524B0E1
:100CEC00ECB506ACAC23E41209A2E4FBFA798078EB
:100CFC00431208FBC004C005C006C007AC22E412B6
:100D0C0009A2D003D002D001D0001208071209D6D4
:100D1C008F21AC27E41209A2E4FBFA798078431204
:100D2C0008FBC004C005C006C007AC26E41209A22B
:100D3C00D003D002D001D0001208071209D68F259B
:010D4C002284
:100F6A00758901E4F535F534F533F532F539F53897
:090F7A00F537F536D2A9D2AF22F9
:100BD700120F4C120F6A120DD9120E617F80120F7D
:100BE700B2E52175F06484E5F075F00A842430FFDE
:100BF700120FBEE52175F00A84E5F02430FF120FCD
:100C0700BE7F88120FB2AE3AAF3B7C007D64120AFA
:100C1700577E007F0ACFCDCFCECCCE120A57EF2416
:100C270030FF120FBEAE3AAF3B7C007D0A120A5767
:100C3700ED2430FF120FBE7FC0120FB2E52575F00D
:100C47006484E5F075F00A842430FF120FBEE525B1
:100C570075F00A84E5F02430FF120FBE7FC8120F2B
:100C6700B2AE3CAF3D7C007D64120A577E007F0A1E
:100C7700CFCDCFCECCCE120A57EF2430FF120FBE06
:100C8700AE3CAF3D7C007D0A120A57ED2430FF12BF
:050C97000FBE020BDDA1
:10080000020A42E86480F8E933E83360110460F0DA
:10081000ED33EC337009E8FCE9FDEAFEEBFF22045E
:1008200060DED3EB9FEA9EE99DE8C2E78CF0C2F759
:1008300095F0400CE8CCF8E9CDF9EACEFAEBCFFB25
:10084000120A0D85D0F05804700320D5B3E8047067
:10085000075002B2D5020A4C92D5EC0460F7E4CC02
:10086000C0E0C398F8603B94186008400DD0E0FBEE
:10087000020A24E4FBFAC9FC8028E830E406E4C953
:10088000FBE4CAFCE830E305E4C9CACBFCE8540742
:100890006010F8C3E913F9EA13FAEB13FBEC13FC4D
:1008A000D8F130F52FC3E49CFCEF9BFFEE9AFEEDF0
:1008B00099FDD0E0FBEF4E4D4C701222DB03020A93
:1008C00049EC2CFCEF33FFEE33FEED33FDED30E76A
:1008D000EB020A24EF2BFFEE3AFEED39FDD0E0FBF0
:1008E00050130BBB0003020A4CED13FDEE13FEEF99
:0808F00013FFEC13FC020A24C3
:1008F800020A4CEC5D046005E859047003020A42E0
:10090800120A0D580460F6EC4860F2EC7004FDFE23
:10091800FF22C860DB2481C85009C39860025006D2
:10092800020A499850CAF582E9294B4A7005AB82F8
:10093800020A3875F0007C1A7880C3EF9BEE9AEDB6
:1009480099400DC3EF9BFFEE9AFEED99FDE842F04A
:10095800DC23ACF0D0E0FFD0E0FED0E0FDAB82209D
:10096800E7101BEB60BAEC2CFCEF33FFEE33FEED27
:1009780033FD020A24E803F830E705C0F075F000FB
:10098800EF2FFFEE33FEED33FD40B830E7C280AA0B
:1009980075F020800E75F010800575F0087D007EDA
:1009A800007F003392D530D503120BC9EC334010C9
:1009B800EF33FFEE33FEED33FDEC33FCD5F0ED22E3
:0E09C800E5F0247EA2D513CC92E7CDCEFF221F
:1009D600EDD2E7CD33EC3392D524814006E4FFFE19
:1009E600FDFC22FCE4CFCECDCC24E0501174FF8078
:1009F600EDC3CC13CCCD13CDCE13CECF13CF047015
:070A0600F030D5DE020BC940
:100A0D00E9D2E7C933E833F892D5EDD2E7CD33EC2F
:070A1D0033FC5002B2D522A8
:100A2400EC30E7100FBF000C0EBE00080DBD000433
:100A34000BEB6014A2D5EB13FCED92E7FD2274FFDF
:100A4400FCFDFEFF22E480F8A2D574FF13FC7D8038
:030A5400E480EF4C
:100D5900020BD7E493A3F8E493A34003F68001F2CE
:100D690008DFF48029E493A3F85407240CC8C3339B
:100D7900C4540F4420C8834004F456800146F6DF6A
:100D8900E4800B0102040810204080900F83E47E68
:100D9900019360BCA3FF543F30E509541FFEE4935F
:100DA900A360010ECF54C025E060A840B8E493A326
:100DB900FAE493A3F8E493A3C8C582C8CAC583CA51
:100DC900F0A3C8C582C8CAC583CADFE9DEE780BE09
:010F9B000055
:100A5700BC000BBE0029EF8DF084FFADF022E4CC83
:100A6700F875F008EF2FFFEE33FEEC33FCEE9DEC4C
:100A7700984005FCEE9DFE0FD5F0E9E4CEFD22ED92
:100A8700F8F5F0EE8420D21CFEADF075F008EF2FDC
:100A9700FFED33FD4007985006D5F0F222C398FDCD
:050AA7000FD5F0EA226A
:100AAC00E88FF0A4CC8BF0A42CFCE98EF0A42CFCE9
:100ABC008AF0EDA42CFCEA8EF0A4CDA8F08BF0A467
:100ACC002DCC3825F0FDE98FF0A42CCD35F0FCEBC6
:100ADC008EF0A4FEA9F0EB8FF0A4CFC5F02ECD398B
:0F0AEC00FEE43CFCEAA42DCE35F0FDE43CFC22F8
:100AFB0075F008758200EF2FFFEE33FECD33CDCCB2
:100B0B0033CCC58233C5829BED9AEC99E582984034
:100B1B000CF582EE9BFEED9AFDEC99FC0FD5F0D611
:100B2B00E4CEFBE4CDFAE4CCF9A88222B800C1B93B
:100B3B000059BA002DEC8BF084CFCECDFCE5F0CB79
:100B4B00F97818EF2FFFEE33FEED33FDEC33FCEBB2
:100B5B0033FB10D703994004EB99FB0FD8E5E4F96D
:100B6B00FA227818EF2FFFEE33FEED33FDEC33FC5A
:100B7B00C933C910D7059BE99A4007EC9BFCE99A4E
:100B8B00F90FD8E0E4C9FAE4CCFB2275F010EF2F93
:100B9B00FFEE33FEED33FDCC33CCC833C810D70793
:100BAB009BEC9AE899400AED9BFDEC9AFCE899F8CE
:0E0BBB000FD5F0DAE4CDFBE4CCFAE4C8F92261
:0E0BC900C3E49FFFE49EFEE49DFDE49CFC223D
:00000001FF
