:03000000020A16DB
:0C0A1600787FE4F6D8FD7581100208F727
:1009FC002052656420436F6E74726F6C20204952D4
:0A0A0C002D434F44453A2D2D48209C
:1008F700120A3A1209C47F80120A22E4F50FE50FA3
:100907009009FC93FF120A2E050FE50FC3940D40C3
:10091700ED7FC0120A22E4F50FE50F900A0993FF55
:10092700120A2E050FE50FC3940D40EDE50BC454D5
:100937000FF50DE50B540FF50EE50DD394097FC99F
:100947004009120A22E50D24378007120A22E50D15
:100957002430FF120A2EE50ED39409400F7FCA12E6
:100967000A22E50E2437FF120A2E80C07FCA120A18
:0B09770022E50E2430FF120A2E80B192
:0409E2007F017E0013
:1009E600EF1FAA0670011E4A600BE4FDEDC3940DCD
:0509F60050EE0D80F73A
:0109FB0022D9
:090A3A00D288D2A8D2AFD2B222B8
:03000300020800F0
:10080000C0E0C083C082C0D075D000C000C002C0AC
:0708100004C005C006C0078B
:100817007508007F467E001209E630B2030208E23F
:100827009003E820B218D3E5829400E58394004052
:100837000D1209E2E582158270E9158380E520B281
:10084700030208E29001F430B218D3E5829400E580
:10085700839400400D1209E2E582158270E9158341
:1008670080E5E4FC75100090003C20B218D3E582C7
:100877009400E5839400400D1209E2E58215827029
:10088700E9158380E59001F430B223D3E582940023
:10089700E583940040181209E20508E58215827085
:1008A700021583E508D3941E40DED2A8802D740973
:1008B7002CF8C000E6C313D000F6E508C3940A403D
:1008C7000874092CF8E64480F67508000510E51051
:0B08D700C3940840920CEC640470898C
:1008E200D007D006D005D004D002D000D0D0D0821C
:0508F200D083D0E032CC
:10098200C2A58B807F017E001209ABD2A77F057EB4
:10099200001209ABC2A7EBC454F0F5807F017E00C0
:0909A2001209ABD2A77F057E000B
:1009AB00D3EF9400EE9400400F7DC77C01DCFEDD9D
:0809BB00FAEF1F70EB1E80E84B
:0109C3002211
:0C0A2200AB07C2A7C2A6120982C2A7221D
:0C0A2E00AB07C2A7D2A6120982C2A72201
:1009C4007F32120A227F28120A227F0C120A227F07
:0E09D40006120A227F01120A227F80020A22E6
:00000001FF
