:0300000002091DD5
:0C091D00787FE4F6D8FD75813B02096488
:100B4800042600000000042C00000000022A000017
:080B580002380000023A00001F
:100B6100EF1FAA0670011E4A600BE4FDEDC3940D50
:050B710050EE0D80F7BD
:010B7600225C
:070B8500EFC313FFDFFE22A6
:1009A900D200C28CE4F58CF58AD2B1F52A752B14E4
:1009B900E52B152B7002152AE52B452A70F2C2B1D9
:1009C90030B3FDD28C20B3FDAF8CE48F33F532F513
:1009D90031F530AF8A8F37F536F535F5343000FD0E
:1009E900E4FF7E01FDFCAB33AA32A931A83012081D
:1009F90000EF2537FFEE3536FEED3535FDEC3534A4
:100A09008F298E288D27F526E47F11FEFDFCAB2961
:100A1900AA28A927A826120800E47B4C7A04F9F829
:080A290012088B8E388F392270
:100A3100D200C28CE4F58CF58AD2B4F52A752B1458
:100A4100E52B152B7002152AE52B452A70F2C2B44D
:100A510030B5FDD28E20B5FDAF8CE48F33F532F584
:100A610031F530AF8A8F37F536F535F5343000FD85
:100A7100E4FF7E01FDFCAB33AA32A931A830120894
:100A810000EF2537FFEE3536FEED3535FDEC35341B
:100A91008F2F8E2E8D2DF52CE47F11FEFDFCAB2FBB
:100AA100AA2EA92DA82C120800E47B4C7A04F9F88F
:080AB10012088B8E3A8F3B22E4
:100B0E00E4FC30A0FD7F23120B85E4FD30A0010D27
:100B1E0020A0FDEE25E0FEED42060CBC08E4AF067B
:010B2E0022A4
:100AB900C2A07FB47E00120B61D2A07F3C120B85CD
:100AC90020A04130A0FD20A0FD120B0E8F24120B97
:100AD9000E8F25120B0E8F21120B0E8F22120B0E69
:100AE9008F23D2A0E5212522FFE433FE7C00EF25E8
:100AF90024FFEC3EFEEF2525FFEC3EFEEFB523B0CB
:040B0900ECB506AC95
:010B0D0022C5
:100B2F00758901E4F533F532F531F530F537F536E2
:090B3F00F535F534D2AFD2A9223C
:0E0B7700120B2F1209A9120A31120AB980F5C9
:03000B00020B8C59
:030B8C00D2003262
:10092900020B77E493A3F8E493A34003F68001F262
:1009390008DFF48029E493A3F85407240CC8C333CF
:10094900C4540F4420C8834004F456800146F6DF9E
:10095900E4800B0102040810204080900B48E47EDB
:10096900019360BCA3FF543F30E509541FFEE49393
:10097900A360010ECF54C025E060A840B8E493A35A
:10098900FAE493A3F8E493A3C8C582C8CAC583CA85
:10099900F0A3C8C582C8CAC583CADFE9DEE780BE3D
:010B60000094
:10080000E88FF0A4CC8BF0A42CFCE98EF0A42CFC97
:100810008AF0EDA42CFCEA8EF0A4CDA8F08BF0A415
:100820002DCC3825F0FDE98FF0A42CCD35F0FCEB74
:100830008EF0A4FEA9F0EB8FF0A4CFC5F02ECD3939
:0F084000FEE43CFCEAA42DCE35F0FDE43CFC22A6
:10084F0075F008758200EF2FFFEE33FECD33CDCC60
:10085F0033CCC58233C5829BED9AEC99E5829840E3
:10086F000CF582EE9BFEED9AFDEC99FC0FD5F0D6C0
:10087F00E4CEFBE4CDFAE4CCF9A88222B800C1B9EA
:10088F000059BA002DEC8BF084CFCECDFCE5F0CB28
:10089F00F97818EF2FFFEE33FEED33FDEC33FCEB61
:1008AF0033FB10D703994004EB99FB0FD8E5E4F91C
:1008BF00FA227818EF2FFFEE33FEED33FDEC33FC09
:1008CF00C933C910D7059BE99A4007EC9BFCE99AFD
:1008DF00F90FD8E0E4C9FAE4CCFB2275F010EF2F42
:1008EF00FFEE33FEED33FDCC33CCC833C810D70742
:1008FF009BEC9AE899400AED9BFDEC9AFCE899F87D
:0E090F000FD5F0DAE4CDFBE4CCFAE4C8F9220F
:00000001FF
